:0400000021EF00F0FC
:100008005F82F2AA0AEF00F00CEF00F01FEF00F099
:10001800F2A411EF00F013EF00F01FEF00F0000E54
:10002800D76E060ED66EF2940001764B772B744B82
:0E003800752B704B712B5F9211008FEF0FF044
:101000000054656D706F3A2025640041443A2025F4
:0310100064000079
:101014001EC036F01FC037F020C038F021C039F0B0
:1010240022C03AF023C03BF024C03CF025C03DF080
:101034003DBE1FEF08F022EF08F0010E23EF08F089
:10104400000E346E356A34503510D8B42CEF08F0E5
:101054002EEF08F03EEF08F03D1E3C1E3B1E3A1EEC
:10106400391E381E371E366C000E372238223922BC
:101074003A223B223C223D22000165BF44EF08F0A6
:1010840046EF08F047EF08F0669365BF54EF08F0A9
:10109400655106E16405D8B052EF08F054EF08F04A
:1010A4005AEF08F0000E316E010E306E5EEF08F05C
:1010B40064C030F065C031F062C032F063C033F018
:1010C40034503510D8A469EF08F06BEF08F072EFD4
:1010D40008F066A570EF08F072EF08F075EF08F0FD
:1010E4003206D8A03306000E3F6E1F0E3E6E000E71
:1010F400976FF9EF08F03E06D8A03F06780E3E241D
:10110400D96E000E3F20DA6E36C001F037C002F00F
:1011140038C003F039C004F03AC005F03BC006F013
:101124003CC007F03DC008F00A0E096E000E0A6EBE
:10113400000E0B6E000E0C6E000E0D6E000E0E6E89
:10114400000E0F6E000E106E19EC0BF001C026F0AD
:1011540002C027F003C028F004C029F005C02AF01B
:1011640006C02BF007C02CF008C02DF026C013F0E9
:1011740028C014F0AFEC0FF01350300FDF6E3006C0
:10118400D8A031063206D8A0330636C001F037C0E5
:1011940002F038C003F039C004F03AC005F03BC097
:1011A40006F03CC007F03DC008F00A0E096E000EC0
:1011B4000A6E000E0B6E000E0C6E000E0D6E000E0D
:1011C4000E6E000E0F6E000E106E55EC0AF001C08C
:1011D40036F002C037F003C038F004C039F005C05F
:1011E4003AF006C03BF007C03CF008C03DF03FBEFB
:1011F40004EF09F03F5008E13E04D8A004EF09F0E1
:1012040006EF09F037EF09F036503710381039106F
:101214003A103B103C103D10D8A413EF09F015EF21
:1012240009F07DEF08F031BE22EF09F0315006E1FC
:101234003004D8B020EF09F022EF09F07DEF08F078
:1012440033BE2DEF09F0335008E13204D8A02DEF5E
:1012540009F02FEF09F037EF09F0000166B335EF1D
:1012640009F037EF09F07DEF08F034503510D8A4B9
:101274003EEF09F040EF09F048EF09F0000166A5E0
:1012840046EF09F048EF09F066EF09F03E06D8A0F2
:101294003F0634503510D8A452EF09F054EF09F04A
:1012A4005AEF09F0000E2F6E2B0E2E6E5EEF09F032
:1012B400000E2F6E2D0E2E6E780E3E24D96E000E6B
:1012C4003F20DA6E2EC0DFFF1CC011F01DC012F0EB
:1012D400780E3E24136E000E3F20146E32C015F0BB
:1012E40033C016F03CEC0DF011C01CF012C01DF020
:1012F400120042C0D9FF43C0DAFFDECFF6FFDDCFD4
:10130400F7FF0800F550250AD8A48BEF09F08DEFFC
:1013140009F039EF0AF042C0D9FF43C0DAFFDE2AF0
:10132400000EDD22000E0001636F000E626F62C0CA
:1013340066F063C067F06469656942C0D9FF43C061
:10134400DAFFDECFF6FFDDCFF7FF0800F550640AC1
:10135400D8B4AFEF09F0B1EF09F0C3EF09F042C020
:10136400D9FF43C0DAFFDECFF6FFDDCFF7FF080079
:10137400F550690AD8A4C1EF09F0C3EF09F003EFEF
:101384000AF042C0D9FF43C0DAFFDE2A000EDD2294
:1013940044C0D9FF45C0DAFFDFCF46F0020EDE2697
:1013A400DFCF47F0000EDD2246C0D9FF47C0DAFF89
:1013B400DECF48F0DDCF49F0000E49BEFF0E4A6E85
:1013C4004B6E4C6E4D6E4E6E4F6E40C01CF041C065
:1013D4001DF048C01EF049C01FF04AC020F04BC0A9
:1013E40021F04CC022F04DC023F04EC024F04FC079
:1013F40025F00AEC08F01CC040F01DC041F054EF89
:101404000AF042C0D9FF43C0DAFFDECFF6FFDDCFDA
:10141400F7FF0800F550250AD8A413EF0AF015EFDA
:101424000AF02CEF0AF042C0D9FF43C0DAFFDE2AEB
:10143400000EDD22000E026E250E016E40C003F088
:1014440041C004F0D7EC0CF0000E416E010E406E6A
:1014540054EF0AF042C0D9FF43C0DAFFDE2A000E7F
:10146400DD22000E416E000E406E54EF0AF042C0C1
:10147400D9FF43C0DAFFDECFF6FFDDCFF7FF080068
:10148400F550016E026A40C003F041C004F0D7EC8D
:101494000CF042C0D9FF43C0DAFFDE2A000EDD2281
:1014A40026EF0AF01200000E126E10BE5EEF0AF074
:1014B4005CEF0AF070EF0AF0101E0F1E0E1E0D1ED8
:1014C4000C1E0B1E0A1E096C000E0A220B220C2293
:1014D4000D220E220F221022010E126E08BE77EF8B
:1014E4000AF075EF0AF089EF0AF0081E071E061EBF
:1014F400051E041E031E021E016C000E022203229E
:1015040004220522062207220822010E121A20EEC6
:1015140013F0070EDE6AE806FDE209500A100B100C
:101524000C100D100E100F101010D8B49CEF0AF010
:101534009EEF0AF0F0EF0AF0010E116EACEF0AF024
:10154400D89009360A360B360C360D360E360F3661
:101554001036112A10AEB1EF0AF0B3EF0AF0A2EF81
:101564000AF0D89013361436153616361736183650
:1015740019361A360950015C0A5002580B500358A8
:101584000C5004580D5005580E5006580F5007586B
:1015940010500858D8A0D1EF0AF0D3EF0AF0E4EFC6
:1015A4000AF00950015E0A50025A0B50035A0C50BB
:1015B400045A0D50055A0E50065A0F50075A10502F
:1015C400085A1380D89010320F320E320D320C327A
:1015D4000B320A320932112EB3EF0AF01250D8B48A
:1015E400F6EF0AF0F8EF0AF008EF0BF01A1E191ED6
:1015F400181E171E161E151E141E136C000E142220
:10160400152216221722182219221A2213C001F0B9
:1016140014C002F015C003F016C004F017C005F0A2
:1016240018C006F019C007F01AC008F01200000E26
:10163400126E08BE22EF0BF020EF0BF034EF0BF02C
:10164400081E071E061E051E041E031E021E016C34
:10165400000E022203220422052206220722082267
:10166400010E126E10BE3BEF0BF039EF0BF04BEF97
:101674000BF0101E0F1E0E1E0D1E0C1E0B1E0A1E3E
:10168400096C000E0A220B220C220D220E220F22BC
:10169400102209500A100B100C100D100E100F1010
:1016A4001010D8B458EF0BF05AEF0BF0A2EF0BF078
:1016B400010E116E68EF0BF0D89009360A360B361E
:1016C4000C360D360E360F361036112A10AE6DEF6D
:1016D4000BF06FEF0BF05EEF0BF00950015C0A505A
:1016E40002580B5003580C5004580D5005580E5016
:1016F40006580F50075810500858D8A084EF0BF024
:1017040086EF0BF096EF0BF00950015E0A50025A77
:101714000B50035A0C50045A0D50055A0E50065AD9
:101724000F50075A1050085AD89010320F320E3208
:101734000D320C320B320A320932112E6FEF0BF0DC
:101744001250D8B4A8EF0BF0AAEF0BF0BAEF0BF0DD
:10175400081E071E061E051E041E031E021E016C23
:10176400000E022203220422052206220722082256
:1017740001C001F002C002F003C003F004C004F091
:1017840005C005F006C006F007C007F008C008F061
:101794001200036E016A03AE01D0012A01A0D5EF45
:1017A4000BF0D7EF0BF0DAEF0BF08A8EDBEF0BF0D8
:1017B4008A9E03C001F0060E026ED8900132022EFA
:1017C400DFEF0BF001A0E9EF0BF0EBEF0BF0EEEF26
:1017D4000BF08A8CEFEF0BF08A9C03C001F0050E2E
:1017E400026ED8900132022EF3EF0BF001A0FDEF50
:1017F4000BF0FFEF0BF002EF0CF08A8A03EF0CF012
:101804008A9A03C001F0013A0F0E011601A00DEFF0
:101814000CF00FEF0CF012EF0CF08A8813EF0CF0C1
:101824008A9803C001F0D8900132D8900132D89040
:10183400013201A020EF0CF022EF0CF025EF0CF0A8
:101844008A8626EF0CF08A9603C001F0D890013204
:10185400D890013201A031EF0CF033EF0CF036EFE9
:101864000CF08A8437EF0CF08A9403C001F0D8900E
:10187400013201A040EF0CF042EF0CF045EF0CF008
:101884008A8246EF0CF08A9203A04BEF0CF04DEFE6
:101894000CF050EF0CF08A8051EF0CF08A9029EC98
:1018A40010F01200076E000E096E000E086E94EF21
:1018B4000CF008500124D96E09500220DA6E07504A
:1018C400110DA90E046E000E056EF3500426F4509B
:1018D400052208500424E16E09500520E26EDE5012
:1018E400E618D8B478EF0CF07AEF0CF092EF0CF025
:1018F40008500124D96E09500220DA6E0750110DE8
:10190400A90E036E000E046EF3500326F450042255
:1019140008500324E16E09500420E26EDFCFE7FF94
:10192400084A092A08500124D96E09500220DA6EA7
:10193400DF50D8B4A0EF0CF0A2EF0CF0B0EF0CF035
:1019440009BEAEEF0CF0095009E1100E085CD8A0F6
:10195400AEEF0CF0B0EF0CF05BEF0CF009BEBCEF97
:101964000CF0095009E1100E085CD8A0BCEF0CF093
:10197400BEEF0CF0C0EF0CF0D6EF0CF00750110DD9
:10198400A90E036E000E046EF3500326F4500422D5
:1019940008500324D96E09500420DA6E200EDF6E3D
:1019A400084A092AB0EF0CF0120003500410D8B40E
:1019B400DEEF0CF0E0EF0CF0E9EF0CF00350041054
:1019C400D8A4E7EF0CF0E9EF0CF0EEEF0CF00150C7
:1019D4008DEC10F03BEF0DF020EE04F00350D9260F
:1019E4000450DA22DE50DE10D8B4FBEF0CF0FDEF29
:1019F4000CF018EF0DF020EE04F00350D92604503B
:101A0400DA2210EE02F00350E1260450E222DE5006
:101A1400E65CE650800A096EDE50800A0958D8B0A8
:101A240016EF0DF018EF0DF03BEF0DF020EE02F085
:101A34000350D9260450DA22DECF05F0DDCF06F0BC
:101A440003C0D9FF04C0DAFFDECF07F0DDCF08F012
:101A540005500724D96E06500820DA6E01C0DFFF56
:101A640020EE02F00350D9260450DA22DE2A000EBA
:101A7400DD221200000166A142EF0DF044EF0DF0EB
:101A84004EEF0DF013C00AF014C00BF011C00CF0AF
:101A940012C00DF04BEC0FF016BE53EF0DF055EFE6
:101AA4000DF05BEF0DF015C01AF016C01BF05FEFE0
:101AB4000DF0000E1B6E000E1A6E000E196E000E55
:101AC400186E71EF0DF0000E026E200E016E11C043
:101AD40003F012C004F0D7EC0CF0184A192A1A507B
:101AE400185C1950800A176E1B50800A1758D8A02A
:101AF4007EEF0DF080EF0DF065EF0DF0000166B1A3
:101B040086EF0DF088EF0DF092EF0DF013C00AF0A0
:101B140014C00BF011C00CF012C00DF04BEC0FF020
:101B240013C001F014C002F0CFEC0FF01A500124DE
:101B3400116E1B500220126E1200000E936E000EE6
:101B4400946E010E926E000E8A6E000E8B6E7FEC08
:101B540010F0000ED76E060ED66E010EC26E000E89
:101B6400C16E9D0EC06EC5EC0EF0980E586E000E40
:101B7400596E010E5A6E100E5B6E70C05CF071C02F
:101B84005DF022EC0FF0980E016E000E026E000E56
:101B940054EC0CF0F6EC0EF0000177BFDBEF0DF027
:101BA400775109E1050E765DD8A0DBEF0DF0DDEF8E
:101BB4000DF0CCEF0DF0E3EC0DF0CCEF0DF021EFD8
:101BC40000F0000E0001776F000E766F20EC0EF02F
:101BD40075EC10F088EC10F001C072F002C073F0E4
:101BE400000E0001986F980E586E000E596E010E8B
:101BF4005A6E100E5B6E70C05CF071C05DF022EC2A
:101C04000FF0980E016E000E026E010E54EC0CF0F3
:101C1400980E586E000E596E0B0E5A6E100E5B6EB7
:101C240072C05CF073C05DF022EC0FF0980E016E90
:101C3400000E026E000E54EC0CF0120000016F5105
:101C440007E1100E6E5DD8B02AEF0EF02CEF0EF007
:101C540044EF0EF05E50110DA90E046E000E056ED9
:101C6400F3500426F45005226E510424D96E6F51AA
:101C74000520DA6EDF50CBEC0BF000016E4B6F2BBE
:101C840059EF0EF0000E6F6F000E6E6F5E50D8A409
:101C94004EEF0EF050EF0EF054EF0EF0010E5E6EAC
:101CA40056EF0EF0000E5E6E5E506DEC0FF01200FB
:101CB400000E066E000E056E03500410D8B465EFD6
:101CC4000EF067EF0EF08FEF0EF0010E076E6FEF60
:101CD4000EF0D89003360436072A04AE74EF0EF0E3
:101CE40076EF0EF06BEF0EF0D89005360636035003
:101CF400015C04500258D8A082EF0EF084EF0EF07D
:101D040089EF0EF00350015E0450025A0580D8900A
:101D140004320332072E76EF0EF005C001F006C040
:101D240002F0120052C056F053C057F0000E0001EA
:101D3400616F000E606FB2EF0EF050C040F051C002
:101D440041F0560E426E000E436E54C044F055C02E
:101D540045F07BEC09F040500001602741506123BD
:101D640056C0F6FF57C0F7FF0800F5500009D8A485
:101D7400BEEF0EF0C0EF0EF09FEF0EF060C050F01B
:101D840061C051F01200020E036E4D0E026E740E0D
:101D9400E82EFED7022EFCD7032EFAD700D03AEC59
:101DA40010F0680E026EE40EE82EFED7022EFCD769
:101DB40000D03AEC10F0090E036E1E0E026EE40E13
:101DC400E82EFED7022EFCD7032EFAD700D03AEC29
:101DD40010F03AEC10F05EEC10F016EC10F046EC5B
:101DE40010F052EC10F01200EAEC0FF00150000178
:101DF4006A2702506B23684B692B695109E1400E35
:101E0400685DD8A008EF0FF00AEF0FF021EF0FF094
:101E14006AC001F06BC002F068C003F069C004F04E
:101E24005AEC0EF001C06CF002C06DF0000E00011F
:101E3400696F000E686F000E6B6F000E6A6F120000
:101E44005C0E0001CF6F000ED06F58C0D1F059C0A6
:101E5400D2F0000ED46F000ED36F000ED66F000EBA
:101E6400D56FD10E506E000E516E5AC052F05BC049
:101E740053F0CF0E546E000E556E94EC0EF000012C
:101E8400D3515824D96ED4515920DA6E000EDF6E26
:101E94001200000E106E000E0F6E5CEF0FF00EC0FD
:101EA40001F0026A0CC003F00DC004F0D7EC0CF092
:101EB4000F4A102A0F500A24D96E10500B20DA6EE4
:101EC400DF500E6E0E50D8A46AEF0FF06CEF0FF0D7
:101ED40051EF0FF01200016E0150D8A474EF0FF00F
:101EE40076EF0FF083EF0FF08B988A8E8A9C8A9A94
:101EF4008A988A968A948A928A906AEC10F08EEF75
:101F04000FF08B988A8E8A8C8A9A8A988A968A94F9
:101F14008A928A907FEF0FF01200060EF66E200E62
:101F2400F76E000EF86E00EEA9F010EE26F0090030
:101F3400F5CFEEFFE550E150FAE100EE60F0490E16
:101F4400EE6AE806FDE15E6A5F905F92000EF86E4D
:101F5400100EF76E00019FEF0DF014BEBCEF0FF0F2
:101F6400145006E11304D8B0BAEF0FF0BCEF0FF031
:101F7400CAEF0FF013C015F014C016F0151E161E8C
:101F8400154A162A15C013F016C014F0CEEF0FF040
:101F940013C013F014C014F0120001C003F002C007
:101FA40004F0D7EF0FF0014A022A01C0D9FF02C0A2
:101FB400DAFFDF50D8A4E1EF0FF0E3EF0FF0D5EF35
:101FC4000FF00350015C016E04500258026E1200BF
:101FD400C280C282C2B2F1EF0FF0F3EF0FF0ECEF68
:101FE4000FF0C350C4CF03F0046A03C004F0036AC3
:101FF4000310056E0450066E05C001F006C002F021
:10200400120042656D2056696E646F2035372031A9
:102014003233004C434420616F2056696E646F2054
:1020240042656D00400001008B988A9E8A9C8A9AC2
:102034008A988A968A948A928A806AEC10F0200E92
:10204400016E2A0EE82EFED7012EFCD712008B88D3
:10205400050EE82EFED700F08B8A050EE82EFED77B
:1020640000F08B9A050EE82EFED700F08B98120034
:102074008B988A9E8A9C8A8A8A888A868A948A927B
:102084008A906AEC10F012008B988A9E8A9C8A9A35
:102094008A988A968A848A828A906AEC10F012005E
:1020A4008B988A9E8A9C8A9A8A988A868A848A824B
:1020B4008A806AEC10F012008B988A9E8A9C8A9A15
:1020C4008A988A868A948A928A906AEC10F012001E
:1020D4008B8A050EE82EFED700F08B9AD50EE82EDB
:1020E400FED700F012008BA07AEF10F07DEF10F015
:1020F4008B807EEF10F08B901200FC0ED36E9B8CC5
:10210400C50ED56EF28AF28CF28E12006CC001F00C
:082114006DC002F01200120080
:020000040020DA
:08000000FFFFFFFFFFFFFFFF00
:020000040030CA
:0E000000FF381F3CFFBF85FF0FC00FE00F4011
:00000001FF
