:040000001FEF00F0FE
:100008005F82F2AA0AEF00F00CEF00F01DEF00F09B
:10001800F2A411EF00F013EF00F01DEF00F0000E56
:10002800D76E060ED66EF29400016A4B6B2B684BA6
:0A003800692B5F921100F8EF0EF043
:101000000054656D706F3A20256400001EC036F0F4
:101010001FC037F020C038F021C039F022C03AF0AC
:1010200023C03BF024C03CF025C03DF03DBE1BEF8B
:1010300008F01EEF08F0010E1FEF08F0000E346EEE
:10104000356A34503510D8B428EF08F02AEF08F08C
:101050003AEF08F03D1E3C1E3B1E3A1E391E381E5C
:10106000371E366C000E3722382239223A223B22B4
:101070003C223D22000165BF40EF08F042EF08F03E
:1010800043EF08F0669365BF50EF08F0655106E145
:101090006405D8B04EEF08F050EF08F056EF08F0B6
:1010A000000E316E010E306E5AEF08F064C030F061
:1010B00065C031F062C032F063C033F03450351097
:1010C000D8A465EF08F067EF08F06EEF08F066A5AA
:1010D0006CEF08F06EEF08F071EF08F03206D8A060
:1010E0003306000E3F6E1F0E3E6E000E8D6FF5EF45
:1010F00008F03E06D8A03F066E0E3E24D96E000EC4
:101100003F20DA6E36C001F037C002F038C003F07D
:1011100039C004F03AC005F03BC006F03CC007F00F
:101120003DC008F00A0E096E000E0A6E000E0B6E2E
:10113000000E0C6E000E0D6E000E0E6E000E0F6E89
:10114000000E106E15EC0BF001C026F002C027F067
:1011500003C028F004C029F005C02AF006C02BF017
:1011600007C02CF008C02DF026C013F028C014F0E2
:1011700018EC0FF01350300FDF6E3006D8A0310698
:101180003206D8A0330636C001F037C002F038C0AE
:1011900003F039C004F03AC005F03BC006F03CC093
:1011A00007F03DC008F00A0E096E000E0A6E000E30
:1011B0000B6E000E0C6E000E0D6E000E0E6E000E0D
:1011C0000F6E000E106E51EC0AF001C036F002C036
:1011D00037F003C038F004C039F005C03AF006C05B
:1011E0003BF007C03CF008C03DF03FBE00EF09F007
:1011F0003F5008E13E04D8A000EF09F002EF09F0EB
:1012000033EF09F036503710381039103A103B10D0
:101210003C103D10D8A40FEF09F011EF09F079EF61
:1012200008F031BE1EEF09F0315006E13004D8B0AD
:101230001CEF09F01EEF09F079EF08F033BE29EF3B
:1012400009F0335008E13204D8A029EF09F02BEF60
:1012500009F033EF09F0000166B331EF09F033EF25
:1012600009F079EF08F034503510D8A43AEF09F0BE
:101270003CEF09F044EF09F0000166A542EF09F0E8
:1012800044EF09F062EF09F03E06D8A03F06345063
:101290003510D8A44EEF09F050EF09F056EF09F0E1
:1012A000000E2F6E2B0E2E6E5AEF09F0000E2F6ED1
:1012B0002D0E2E6E6E0E3E24D96E000E3F20DA6E7D
:1012C0002EC0DFFF1CC011F01DC012F06E0E3E24B8
:1012D000136E000E3F20146E32C015F033C016F0AE
:1012E00038EC0DF011C01CF012C01DF0120042C00D
:1012F000D9FF43C0DAFFDECFF6FFDDCFF7FF0800EE
:10130000F550250AD8A487EF09F089EF09F035EFE9
:101310000AF042C0D9FF43C0DAFFDE2A000EDD2208
:10132000000E0001636F000E626F62C066F063C062
:1013300067F06469656942C0D9FF43C0DAFFDECF58
:10134000F6FFDDCFF7FF0800F550640AD8B4ABEF25
:1013500009F0ADEF09F0BFEF09F042C0D9FF43C07B
:10136000DAFFDECFF6FFDDCFF7FF0800F550690AA0
:10137000D8A4BDEF09F0BFEF09F0FFEF09F042C0BC
:10138000D9FF43C0DAFFDE2A000EDD2244C0D9FFB8
:1013900045C0DAFFDFCF46F0020EDE26DFCF47F092
:1013A000000EDD2246C0D9FF47C0DAFFDECF48F08D
:1013B000DDCF49F0000E49BEFF0E4A6E4B6E4C6EFB
:1013C0004D6E4E6E4F6E40C01CF041C01DF048C0C7
:1013D0001EF049C01FF04AC020F04BC021F04CC0A5
:1013E00022F04DC023F04EC024F04FC025F006EC93
:1013F00008F01CC040F01DC041F050EF0AF042C0A0
:10140000D9FF43C0DAFFDECFF6FFDDCFF7FF0800DC
:10141000F550250AD8A40FEF0AF011EF0AF028EFD3
:101420000AF042C0D9FF43C0DAFFDE2A000EDD22F7
:10143000000E026E250E016E40C003F041C004F0A4
:10144000D3EC0CF0000E416E010E406E50EF0AF02E
:1014500042C0D9FF43C0DAFFDE2A000EDD22000EB3
:10146000416E000E406E50EF0AF042C0D9FF43C0FB
:10147000DAFFDECFF6FFDDCFF7FF0800F550016E93
:10148000026A40C003F041C004F0D3EC0CF042C04B
:10149000D9FF43C0DAFFDE2A000EDD2222EF0AF078
:1014A0001200000E126E10BE5AEF0AF058EF0AF04A
:1014B0006CEF0AF0101E0F1E0E1E0D1E0C1E0B1ED2
:1014C0000A1E096C000E0A220B220C220D220E228B
:1014D0000F221022010E126E08BE73EF0AF071EF98
:1014E0000AF085EF0AF0081E071E061E051E041EE0
:1014F000031E021E016C000E02220322042205229A
:10150000062207220822010E121A20EE13F0070EFF
:10151000DE6AE806FDE209500A100B100C100D10EF
:101520000E100F101010D8B498EF0AF09AEF0AF0CE
:10153000ECEF0AF0010E116EA8EF0AF0D890093610
:101540000A360B360C360D360E360F361036112A8B
:1015500010AEADEF0AF0AFEF0AF09EEF0AF0D890B0
:1015600013361436153616361736183619361A3617
:101570000950015C0A5002580B5003580C50045893
:101580000D5005580E5006580F5007581050085867
:10159000D8A0CDEF0AF0CFEF0AF0E0EF0AF0095043
:1015A000015E0A50025A0B50035A0C50045A0D5057
:1015B000055A0E50065A0F50075A1050085A1380F9
:1015C000D89010320F320E320D320C320B320A32FA
:1015D0000932112EAFEF0AF01250D8B4F2EF0AF030
:1015E000F4EF0AF004EF0BF01A1E191E181E171E56
:1015F000161E151E141E136C000E14221522162220
:101600001722182219221A2213C001F014C002F066
:1016100015C003F016C004F017C005F018C006F09E
:1016200019C007F01AC008F01200000E126E08BEB2
:101630001EEF0BF01CEF0BF030EF0BF0081E071E37
:10164000061E051E041E031E021E016C000E022251
:10165000032204220522062207220822010E126E0E
:1016600010BE37EF0BF035EF0BF047EF0BF0101E0D
:101670000F1E0E1E0D1E0C1E0B1E0A1E096C000EE8
:101680000A220B220C220D220E220F2210220950B8
:101690000A100B100C100D100E100F101010D8B4F3
:1016A00054EF0BF056EF0BF09EEF0BF0010E116EA6
:1016B00064EF0BF0D89009360A360B360C360D362F
:1016C0000E360F361036112A10AE69EF0BF06BEFA5
:1016D0000BF05AEF0BF00950015C0A5002580B5006
:1016E00003580C5004580D5005580E5006580F5012
:1016F000075810500858D8A080EF0BF082EF0BF07D
:1017000092EF0BF00950015E0A50025A0B50035A37
:101710000C50045A0D50055A0E50065A0F50075AD5
:101720001050085AD89010320F320E320D320C324F
:101730000B320A320932112E6BEF0BF01250D8B473
:10174000A4EF0BF0A6EF0BF0B6EF0BF0081E071E90
:10175000061E051E041E031E021E016C000E022240
:1017600003220422052206220722082201C001F0DA
:1017700002C002F003C003F004C004F005C005F08D
:1017800006C006F007C007F008C008F01200036E9C
:10179000016A03AE01D0012A01A0D1EF0BF0D3EF13
:1017A0000BF0D6EF0BF08A8ED7EF0BF08A9E03C0BA
:1017B00001F0060E026ED8900132022EDBEF0BF024
:1017C00001A0E5EF0BF0E7EF0BF0EAEF0BF08A8CEE
:1017D000EBEF0BF08A9C03C001F0050E026ED8906F
:1017E0000132022EEFEF0BF001A0F9EF0BF0FBEF4F
:1017F0000BF0FEEF0BF08A8AFFEF0BF08A9A03C022
:1018000001F0013A0F0E011601A009EF0CF00BEFE9
:101810000CF00EEF0CF08A880FEF0CF08A9803C0E2
:1018200001F0D8900132D8900132D890013201A055
:101830001CEF0CF01EEF0CF021EF0CF08A8622EF6B
:101840000CF08A9603C001F0D8900132D890013292
:1018500001A02DEF0CF02FEF0CF032EF0CF08A848A
:1018600033EF0CF08A9403C001F0D890013201A04C
:101870003CEF0CF03EEF0CF041EF0CF08A8242EFAF
:101880000CF08A9203A047EF0CF049EF0CF04CEFFC
:101890000CF08A804DEF0CF08A90A8EC0FF012004B
:1018A000076E000E096E000E086E90EF0CF00850E7
:1018B0000124D96E09500220DA6E0750110D8E0EE8
:1018C000046E000E056EF3500426F45005220850F5
:1018D0000424E16E09500520E26EDE50E618D8B40B
:1018E00074EF0CF076EF0CF08EEF0CF00850012442
:1018F000D96E09500220DA6E0750110D8E0E036E5C
:10190000000E046EF3500326F45004220850032402
:10191000E16E09500420E26EDFCFE7FF084A092A92
:1019200008500124D96E09500220DA6EDF50D8B475
:101930009CEF0CF09EEF0CF0ACEF0CF009BEAAEFA0
:101940000CF0095009E1100E085CD8A0AAEF0CF0C9
:10195000ACEF0CF057EF0CF009BEB8EF0CF00950EB
:1019600009E1100E085CD8A0B8EF0CF0BAEF0CF04B
:10197000BCEF0CF0D2EF0CF00750110D8E0E036E81
:10198000000E046EF3500326F45004220850032482
:10199000D96E09500420DA6E200EDF6E084A092A3B
:1019A000ACEF0CF0120003500410D8B4DAEF0CF0D6
:1019B000DCEF0CF0E5EF0CF003500410D8A4E3EFDB
:1019C0000CF0E5EF0CF0EAEF0CF00150C2EC0FF078
:1019D00037EF0DF020EE04F00350D9260450DA2240
:1019E000DE50DE10D8B4F7EF0CF0F9EF0CF014EF86
:1019F0000DF020EE04F00350D9260450DA2210EE48
:101A000002F00350E1260450E222DE50E65CE6508C
:101A1000800A096EDE50800A0958D8B012EF0DF026
:101A200014EF0DF037EF0DF020EE02F00350D92641
:101A30000450DA22DECF05F0DDCF06F003C0D9FF77
:101A400004C0DAFFDECF07F0DDCF08F00550072431
:101A5000D96E06500820DA6E01C0DFFF20EE02F0DA
:101A60000350D9260450DA22DE2A000EDD221200AD
:101A7000000166A13EEF0DF040EF0DF04AEF0DF0D2
:101A800013C00AF014C00BF011C00CF012C00DF01E
:101A9000B4EC0EF016BE4FEF0DF051EF0DF057EF16
:101AA0000DF015C01AF016C01BF05BEF0DF0000E24
:101AB0001B6E000E1A6E000E196E000E186E6DEF82
:101AC0000DF0000E026E200E016E11C003F012C068
:101AD00004F0D3EC0CF0184A192A1A50185C19506B
:101AE000800A176E1B50800A1758D8A07AEF0DF0A5
:101AF0007CEF0DF061EF0DF0000166B182EF0DF0AB
:101B000084EF0DF08EEF0DF013C00AF014C00BF04F
:101B100011C00CF012C00DF0B4EC0EF013C001F0C7
:101B200014C002F038EC0FF01A500124116E1B5053
:101B30000220126E1200000E936E000E946E000EC4
:101B40008A6E000E8B6EFC0ED36EBCEC0FF0000E96
:101B5000D76E060ED66E5EEC0EF0BA0E586E000E04
:101B6000596E010E5A6E100E5B6E68C05CF069C053
:101B70005DF08BEC0EF0BA0E016E000E026E000EE0
:101B800050EC0CF000016BBFCFEF0DF06B5109E191
:101B9000050E6A5DD8A0CFEF0DF0D1EF0DF0C2EFCA
:101BA0000DF0F3EC0DF0000E00016B6F000E6A6F8C
:101BB000000EBA6FBA0E586E000E596E010E5A6EB4
:101BC000100E5B6E68C05CF069C05DF08BEC0EF0CF
:101BD000BA0E016E000E026E000E50EC0CF0C2EF59
:101BE0000DF01FEF00F000016D5107E1100E6C5D6C
:101BF000D8B0FDEF0DF0FFEF0DF017EF0EF05E50D7
:101C0000110D8E0E046E000E056EF3500426F45076
:101C100005226C510424D96E6D510520DA6EDF5017
:101C2000C7EC0BF000016C4B6D2B2CEF0EF0000E8F
:101C30006D6F000E6C6F5E50D8A421EF0EF023EF95
:101C40000EF027EF0EF0010E5E6E29EF0EF0000E83
:101C50005E6E5E50D6EC0EF0120052C056F053C0CD
:101C600057F0000E0001616F000E606F4BEF0EF039
:101C700050C040F051C041F0560E426E000E436E0F
:101C800054C044F055C045F077EC09F040500001D5
:101C900060274150612356C0F6FF57C0F7FF080088
:101CA000F5500009D8A457EF0EF059EF0EF038EFB9
:101CB0000EF060C050F061C051F01200540E026E80
:101CC0001C0EE82EFED7022EFCD700D078EC0FF0C9
:101CD0001A0E026EF80EE82EFED7022EFCD700D0A8
:101CE00078EC0FF0030E036E080E026E770EE82EEE
:101CF000FED7022EFCD7032EFAD700F078EC0FF0B7
:101D000078EC0FF09CEC0FF053EC0FF084EC0FF03C
:101D100090EC0FF012005C0E0001B26F000EB36F7A
:101D200058C0B4F059C0B5F0000EB76F000EB66FD2
:101D3000000EB96F000EB86FB40E506E000E516EEB
:101D40005AC052F05BC053F0B20E546E000E556E86
:101D50002DEC0EF00001B6515824D96EB751592020
:101D6000DA6E000EDF6E1200000E106E000E0F6EA7
:101D7000C5EF0EF00EC001F0026A0CC003F00DC0FA
:101D800004F0D3EC0CF00F4A102A0F500A24D96E3D
:101D900010500B20DA6EDF500E6E0E50D8A4D3EF29
:101DA0000EF0D5EF0EF0BAEF0EF01200016E0150FA
:101DB000D8A4DDEF0EF0DFEF0EF0ECEF0EF08B9815
:101DC0008A8E8A9C8A9A8A988A968A948A928A901B
:101DD000B3EC0FF0F7EF0EF08B988A8E8A8C8A9A0C
:101DE0008A988A968A948A928A90E8EF0EF0120076
:101DF000CC0EF66E1E0EF76E000EF86E00EE8EF034
:101E000010EE24F00900F5CFEEFFE550E150FAE1C5
:101E100000EE60F02E0EEE6AE806FDE15E6A5F906D
:101E20005F92000EF86E100EF76E00019BEF0DF042
:101E300014BE25EF0FF0145006E11304D8B023EFC1
:101E40000FF025EF0FF033EF0FF013C015F014C0B3
:101E500016F0151E161E154A162A15C013F016C0C8
:101E600014F037EF0FF013C013F014C014F0120089
:101E700001C003F002C004F040EF0FF0014A022A53
:101E800001C0D9FF02C0DAFFDF50D8A44AEF0FF03B
:101E90004CEF0FF03EEF0FF00350015C016E045069
:101EA0000258026E12008B988A9E8A9C8A9A8A989F
:101EB0008A968A948A928A80B3EC0FF0080E016E9B
:101EC000CA0EE82EFED7012EFCD7120042656D2007
:101ED00056696E646F20353720313233004C4344ED
:101EE00020616F2056696E646F2042656D000100AD
:101EF0008B988A9E8A9C8A8A8A888A868A948A9201
:101F00008A90B3EC0FF012008B988A9E8A9C8A9A72
:101F10008A988A968A848A828A90B3EC0FF012009B
:101F20008B988A9E8A9C8A9A8A988A868A848A82D0
:101F30008A80B3EC0FF012008B988A9E8A9C8A9A52
:101F40008A988A868A948A928A90B3EC0FF012005B
:101F50008B8800D000D08B8A00D000D08B9A00D024
:101F600000D08B9812008B8A00D000D08B9A350E4F
:101F7000E82EFED700F01200C30ED56EF28AF28C66
:061F8000F28E12001200B7
:020000040020DA
:08000000FFFFFFFFFFFFFFFF00
:020000040030CA
:0E000000FF381F3CFFBF85FF0FC00FE00F4011
:00000001FF
